:040000008A110B282E
:10000800FE00030EF1000A08F2008A11F42B8A118F
:100018000D2883120313BB01BC01BD01BE01BF0142
:1000280083018A1117287C30831603138F0004304C
:10003800831203138500233083160313850083126C
:1000480003138601A03083160313860003309B0038
:1000580080309F00C130831203139F00C230831683
:1000680003138100831203138101313090009E3005
:100078008F0040308E000530831203178500503002
:10008800831603139200043083120313920028305E
:1000980095003C3097008C014130831603138C0087
:1000A800E0308B008A1172248A1101308312031305
:1000B800A5008030A6008A1199268A11063083127D
:1000C8000313B1003108A50001308A116F238A118A
:1000D8001E3083120313A5008030A6008A119926CA
:1000E8008A11FA0140308A113D268A11FA01FA0A6A
:1000F80006308A113D268A11FA01FA0A09308A1156
:100108003D268A11FA01FA0A09308A113D268A1118
:10011800FA01FA0A09308A113D268A11FA01FA0A07
:1001280009308A113D268A11FA01FA0A09308A1122
:100138003D268A11FA01FA0A09308A113D268A11E8
:10014800FA01FA0A0F308A113D268A11FA01FA0AD1
:1001580006308A113D268A11FA01FA0A09308A11F5
:100168003D268A11FA01FA0A09308A113D268A11B8
:10017800FA01FA0A09308A113D268A11FA01FA0AA7
:1001880009308A113D268A11FA01FA0A09308A11C2
:100198003D268A11FA01FA0A0F308A113D268A1182
:1001A800FA01FA0A0F308A113D268A11FA01FA0A71
:1001B80006308A113D268A11FA01FA0A09308A1195
:1001C8003D268A11FA01FA0A09308A113D268A1158
:1001D800FA01FA0A09308A113D268A11FA01FA0A47
:1001E80009308A113D268A11FA01FA0A0F308A115C
:1001F8003D268A11FA01FA0A0F308A113D268A1122
:10020800FA01FA0A0F308A113D268A11FA01FA0A10
:1002180006308A113D268A11FA01FA0A09308A1134
:100228003D268A11FA01FA0A09308A113D268A11F7
:10023800FA01FA0A09308A113D268A11FA01FA0AE6
:100248000F308A113D268A11FA01FA0A0F308A11F5
:100258003D268A11FA01FA0A0F308A113D268A11C1
:10026800FA01FA0A0F308A113D268A11FA01FA0AB0
:1002780006308A113D268A11FA01FA0A09308A11D4
:100288003D268A11FA01FA0A09308A113D268A1197
:10029800FA01FA0A0F308A113D268A11FA01FA0A80
:1002A8000F308A113D268A11FA01FA0A0F308A1195
:1002B8003D268A11FA01FA0A0F308A113D268A1161
:1002C800FA01FA0A0F308A113D268A11FA01FA0A50
:1002D80006308A113D268A11FA01FA0A09308A1174
:1002E8003D268A11FA01FA0A0F308A113D268A1131
:1002F800FA01FA0A0F308A113D268A11FA01FA0A20
:100308000F308A113D268A11FA01FA0A0F308A1134
:100318003D268A11FA01FA0A0F308A113D268A1100
:10032800FA01FA0A0F308A113D268A11FA01FA0AEF
:1003380006308A113D268A11FA01FA0A0F308A110D
:100348003D268A11FA01FA0A0F308A113D268A11D0
:10035800FA01FA0A0F308A113D268A11FA01FA0ABF
:100368000F308A113D268A11FA01FA0A0F308A11D4
:100378003D268A11FA01FA0A0F308A113D268A11A0
:10038800FA01FA0A0F308A113D268A110B308312BE
:100398000313B3002630B2005D30B100B10BD2298F
:1003A800B20BD229B30BD2298A11D2268A11831211
:1003B8000313BA01BF1EE129E229E629DF30B100A3
:1003C8003108BF053F1EE929EA29EE29EF30B100BF
:1003D8003108BF05A50100308A116F238A118312E5
:1003E80003133E08A1003D08A0000130A200003020
:1003F800A3003430B1003108A4008A1168228A11A0
:10040800343083120313A5000030A6008A11992600
:100418008A11193083120313A5008030A6008A11AF
:1004280099268A11831203133C08A1003B08A000F7
:100438000130A2000030A3003430B1003108A4001C
:100448008A1168228A11343083120313A500003000
:10045800A6008A1199268A11113083120313A50068
:100468008030A6008A1199268A110F30831203134F
:10047800B1003108A50000308A116F238A11FA01F2
:10048800FA0A831203133A088A113D268A110630A4
:1004980083120313B3001330B200AD30B100B10BB7
:1004A800532AB20B532AB30B532A06308312031371
:1004B8003A020318602A612ADB290130B1003108A9
:1004C800BA07DE298A110B2883120313AA0123080D
:1004D800F4002208F3002108F6002008F5008A112C
:1004E8008D258A11740883120313AC007308AB00BE
:1004F8002B082C04031D812A822A932AB001230881
:10050800F4002208F3008A116B268A11FF3E831239
:100518000313A5002508AD00AF01AF0AAF2A2C08C8
:10052800F4002B08F3008A116B268A118312031337
:10053800A5002508B000AF012108F4002008F30049
:100548008A116B268A1183120313A500300825022D
:10055800A6002608AD0020082104031DB42AB52AE8
:10056800C02A3030A50024088400250883138000A1
:10057800240A840080016E2BAE01F92A0A30F300A8
:100588000030F4002108F6002008F5008A11D12572
:100598008A117308303E83120313A5002408A600AD
:1005A8002E08A6022F082607A7002D082707A8004F
:1005B80030082807A900290884002508831380002B
:1005C8000A30F3000030F4002108F6002008F50096
:1005D8008A118D258A11740883120313A1007308E8
:1005E800A0000130A5002508AE072D082E02031C27
:1005F800FE2AFF2AC22A2D080319032B042B132BCA
:100608002E30A5002F082407A60030082607A700CB
:1006180027088400250883138000AA01AA0AAE01CE
:100628004C2B0A30F3000030F40083120313210826
:10063800F6002008F5008A11D1258A117308303E8A
:1006480083120313A5002408A6002E08A60230086A
:100658002607A7002F082707A8002808FF3E8400C0
:100668002508831380000A30F3000030F4002108C5
:10067800F6002008F5008A118D258A117408831266
:100688000313A1007308A0000130A5002508AE07D8
:1006980030082F07A500A601A60D2608803A803C41
:1006A800031D582B25082E02031C5B2B5C2B152BD6
:1006B800831203132F082407A5002A082507A6007C
:1006C80030082607A7002D082707A8002808840057
:1006D80083138001080083120313A8001430A600B6
:1006E8002608F30028088A11BD268A1183120313ED
:1006F8002507A7002708A900143029020318852B0D
:10070800862B8D2BFA01290880388A113D268A11FB
:10071800F32B14302902031C922B932BAF2B283078
:1007280029020318982B992BAF2BFA011430F300E8
:100738000030F4002908A600A7012608F5002708BC
:10074800F6008A11E6248A117308403E80388A111F
:100758003D268A11F32B29302902031CB42BB52B13
:10076800D12B3C3029020318BA2BBB2BD12BFA0111
:100778002830F3000030F4002908A600A701260855
:10078800F5002708F6008A11E6248A117308143E3A
:1007980080388A113D268A11F32B14302902031C54
:1007A800D62BD72BF32B283029020318DC2BDD2B73
:1007B800F32BFA013C30F3000030F4002908A600BE
:1007C800A7012608F5002708F6008A11E6248A11F1
:1007D8007308543E80388A113D268A11F32B08008D
:1007E8008B1EF72BF82B0D2C0B1DFB2BFC2B0D2C2C
:1007F800831203131F1D012C022C082CFB30F00060
:1008080070089F0506170A2C1F081F1581010B1178
:100818006B2C831603130C1C122C132C202C831204
:1008280003130C1C182C192C202C3F169E308F00FB
:1008380040308E000C106B2C831603130C1F252CD4
:10084800262C5F2C831203130C1F2B2C2C2C5F2CB3
:100858001F1D2F2C302C312C061738301F05F000A7
:1008680008307006031D392C3A2C472C1E08BE0090
:10087800831603131E0883120313BD00C730F0004C
:1008880070089F055B2C1F083839031D4C2C4D2C14
:100898005B2C1E08BC00831603131E088312031367
:1008A800BB00C730F00070089F059F1564008312D5
:1008B80003130C136B2C8B1D622C632C6B2C0B1CE1
:1008C800662C672C6B2C8312BF160B106B2C7208CE
:1008D8008A00710E8300FE0E7E0E0900F3010330BC
:1008E8008A113F258A11103083120313A600933012
:1008F800A500A50B7D2CA60B7D2C822CF3010330C3
:100908008A113F258A11633083120313A500A50BB2
:100918008B2CF30103308A113F258A110230831290
:100928000313A500A50B962C0000F30102308A11D1
:100938003F258A11023083120313A500A50BA22CB0
:100948000000FA0128308A113D268A1102308312EC
:100958000313A500A50BAE2C0000FA0108308A117C
:100968003D268A11023083120313A500A50BBA2C69
:100978000000FA0101308A113D268A1106308312DF
:100988000313A6002F30A500A50BC82CA60BC82C56
:10099800CD2CFA0106308A113D268A1102308312C5
:1009A8000313A500A50BD62C0000FA010C308A1100
:1009B8003D268A11023083120313A500A50BE22CF1
:1009C80000000800F901F61FEA2CEB2CF22CF509BF
:1009D800F609F50A0319F60AF901F90AF41FF52CC4
:1009E800F62CFB2CF309F409F30A0319F40A73082B
:1009F80074040319002D012D302DF801F80A0F2D6C
:100A080001300310F30DF40DFF3E031D052D0130D9
:100A1800F7007708F807F41F122D132D042D74081A
:100A28007602031D192D73087502031C1C2D1D2D3C
:100A3800232D7308F5027408031CF603F60201302F
:100A48000310F40CF30CFF3E031D242D0130F802B3
:100A5800031D2F2D302D132D79080319342D352D15
:100A68003A2DF509F609F50A0319F60A7608F4008D
:100A78007508F3000800F60083120313851773083E
:100A88000319472D482D4A2D05174B2D05137608B8
:100A9800F40003300310F40CFF3E031D4E2D7408C0
:100AA8000139F500F50E06087506EF39750686005A
:100AB8007608F40002300310F40CFF3E031D5F2D8E
:100AC80074080139F500F50DF50DF50D06087506E4
:100AD800F739750686007608F4000310740C01399E
:100AE800F500F50DF50D06087506FB397506860047
:100AF80076080139F400F40D06087406FD39740609
:100B080086000330F400F40B872D8312031385133A
:100B18000800F801F901730874040319942D952D40
:100B2800CC2DFA01FA0AA32D01300310F30DF40DB0
:100B3800FF3E031D992D0130F7007708FA07F41FCF
:100B4800A62DA72D982D01300310F80DF90DFF3EA5
:100B5800031DA82D74087602031DB42D73087502B1
:100B6800031CB72DB82DBF2D7308F5027408031C9C
:100B7800F603F602781401300310F40CF30CFF3E70
:100B8800031DC02D0130FA02031DCB2DCC2DA72D3E
:100B98007908F4007808F30008007308740403194E
:100BA800D62DD72D062EF801F80AE52D01300310B1
:100BB800F30DF40DFF3E031DDB2D0130F700770820
:100BC800F807F41FE82DE92DDA2D74087602031DC5
:100BD800EF2D73087502031CF22DF32DF92D730800
:100BE800F5027408031CF603F60201300310F40C36
:100BF800F30CFF3E031DFA2D0130F802031D052EEC
:100C0800062EE92D7608F4007508F3000800FF1B8E
:100C1800152E83137F1883170008840A0319FF0A07
:100C2800080006308A000408840A82070034203449
:100C380047344534493447344534523420344334F6
:100C48004F3455344E3454344534523400347534AA
:100C580053342F346834203420342034003443345F
:100C680050344D3420340034563430342E3431343A
:100C7800003483120313A4002408A00004300310D6
:100C8800A00CFF3E031D432E2008A1002108A2004E
:100C980024080F39A0002008A3007A08A000200823
:100CA800F30022088A113F258A11023083120313A8
:100CB800A000A00B5D2E00007A0883120313A00089
:100CC8002008F30023088A113F258A110800003004
:100CD80074020A30031973020318732E742E762EC9
:100CE8000130982E0030740264300319730203181F
:100CF8007E2E7F2E812E0230982E03307402E8302B
:100D0800031973020318892E8A2E8C2E0330982E0D
:100D1800273074021030031973020318942E952E8D
:100D2800972E0430982E05300800AE2EFA01FA0AE4
:100D38002608FF00250884008A110B268A118A11CB
:100D48003D268A11013083120313A5070318A60A4A
:100D58000030A607831203132608FF002508840025
:100D68008A110B268A11003A031DBB2EBC2E9A2E1F
:100D78000800F600F501761CC22EC32EC72E730894
:100D8800F4007408F5070310F30D0310F60C760849
:100D9800031DCF2ED02EBF2E75080800FA01013092
:100DA8008A113D268A11063083120313A6002F30BC
:0E0DB800A500A50BDD2EA60BDD2EE22E0800F9
:04400E00543FFF3FDD
:00000001FF
