:040000008A110B282E
:10000800FE00030EF1000A08F2008A116D2B8A1116
:100018000D2883120313BB01BC01BD01BE01BF0142
:1000280083018A1117287C30831603138F0004304C
:10003800831203138500233083160313850083126C
:1000480003138601A03083160313860003309B0038
:1000580080309F00C130831203139F00C230831683
:1000680003138100831203138101313090009E3005
:100078008F0040308E00053083120317850004304E
:1000880083120313920050308316031392008312D5
:1000980003138C014130831603138C00E0308B006E
:1000A8008A1188248A11013083120313A500803035
:1000B800A6008A11AF268A11063083120313B100F5
:1000C8003108A50001308A1103248A111E308312D9
:1000D8000313A5008030A6008A11AF268A11FA0101
:1000E80040308A1153268A11FA01FA0A06308A1119
:1000F80053268A11FA01FA0A09308A1153268A11FD
:10010800FA01FA0A09308A1153268A11FA01FA0A01
:1001180009308A1153268A11FA01FA0A09308A111C
:1001280053268A11FA01FA0A09308A1153268A11CC
:10013800FA01FA0A09308A1153268A11FA01FA0AD1
:100148000F308A1153268A11FA01FA0A06308A11E9
:1001580053268A11FA01FA0A09308A1153268A119C
:10016800FA01FA0A09308A1153268A11FA01FA0AA1
:1001780009308A1153268A11FA01FA0A09308A11BC
:1001880053268A11FA01FA0A09308A1153268A116C
:10019800FA01FA0A0F308A1153268A11FA01FA0A6B
:1001A8000F308A1153268A11FA01FA0A06308A1189
:1001B80053268A11FA01FA0A09308A1153268A113C
:1001C800FA01FA0A09308A1153268A11FA01FA0A41
:1001D80009308A1153268A11FA01FA0A09308A115C
:1001E80053268A11FA01FA0A0F308A1153268A1106
:1001F800FA01FA0A0F308A1153268A11FA01FA0A0B
:100208000F308A1153268A11FA01FA0A06308A1128
:1002180053268A11FA01FA0A09308A1153268A11DB
:10022800FA01FA0A09308A1153268A11FA01FA0AE0
:1002380009308A1153268A11FA01FA0A0F308A11F5
:1002480053268A11FA01FA0A0F308A1153268A11A5
:10025800FA01FA0A0F308A1153268A11FA01FA0AAA
:100268000F308A1153268A11FA01FA0A06308A11C8
:1002780053268A11FA01FA0A09308A1153268A117B
:10028800FA01FA0A09308A1153268A11FA01FA0A80
:100298000F308A1153268A11FA01FA0A0F308A118F
:1002A80053268A11FA01FA0A0F308A1153268A1145
:1002B800FA01FA0A0F308A1153268A11FA01FA0A4A
:1002C8000F308A1153268A11FA01FA0A06308A1168
:1002D80053268A11FA01FA0A09308A1153268A111B
:1002E800FA01FA0A0F308A1153268A11FA01FA0A1A
:1002F8000F308A1153268A11FA01FA0A0F308A112F
:1003080053268A11FA01FA0A0F308A1153268A11E4
:10031800FA01FA0A0F308A1153268A11FA01FA0AE9
:100328000F308A1153268A11FA01FA0A06308A1107
:1003380053268A11FA01FA0A0F308A1153268A11B4
:10034800FA01FA0A0F308A1153268A11FA01FA0AB9
:100358000F308A1153268A11FA01FA0A0F308A11CE
:1003680053268A11FA01FA0A0F308A1153268A1184
:10037800FA01FA0A0F308A1153268A11FA01FA0A89
:100388000F308A1153268A110B3083120313B300DE
:100398002630B2005D30B100B10BD029B20BD029A4
:1003A800B30BD0298A11E8268A1183120313BA01E4
:1003B800BF1EDF29E029E429DF30B1003108BF057D
:1003C8003F1EE729E829EC29EF30B1003108BF05C5
:1003D800A50100308A1103248A11831203133E08F1
:1003E800A1003D08A0000130A2000030A300343075
:1003F800B1003108A4008A1166228A1134308312B0
:100408000313A5000030A6008A11AF268A111930FF
:1004180083120313A5008030A6008A11AF268A1123
:10042800831203133C08A1003B08A0000130A2007E
:100438000030A3003430B1003108A4008A116622CC
:100448008A11343083120313A5000030A6008A11E4
:10045800AF268A11113083120313A5008030A6003D
:100468008A11AF268A110F3083120313B1003108A5
:10047800A50000308A1103248A11FA01FA0A8312AE
:1004880003133A088A1153268A110630831203137C
:10049800B3001330B200AD30B100B10B512AB20B2A
:1004A800512AB30B512A0630831203133A02031858
:1004B8005E2A5F2AD9290130B1003108BA07DC2940
:1004C8008A110B2883120313AA012308F4002208B7
:1004D800F3002108F6002008F5008A11A3258A11E7
:1004E800740883120313AC007308AB002B082C04A8
:1004F800031D7F2A802A912AB0012308F4002208CC
:10050800F3008A1181268A11FF3E83120313A50086
:100518002508AD00AF01AF0AAD2A2C08F4002B085E
:10052800F3008A1181268A1183120313A500250876
:10053800B000AF012108F4002008F3008A118126D9
:100548008A1183120313A50030082502A600260885
:10055800AD0020082104031DB22AB32ABE2A303078
:10056800A50024088400250883138000240A840039
:1005780080016C2BAE01F72A0A30F3000030F4003A
:100588002108F6002008F5008A11E7258A1173086A
:10059800303E83120313A5002408A6002E08A602E5
:1005A8002F082607A7002D082707A80030082807C6
:1005B800A900290884002508831380000A30F30065
:1005C8000030F4002108F6002008F5008A11A32560
:1005D8008A11740883120313A1007308A000013064
:1005E800A5002508AE072D082E02031CFC2AFD2AAB
:1005F800C02A2D080319012B022B112B2E30A50020
:100608002F082407A60030082607A700270884001B
:10061800250883138000AA01AA0AAE014A2B0A30D2
:10062800F3000030F400831203132108F6002008B9
:10063800F5008A11E7258A117308303E83120313E7
:10064800A5002408A6002E08A60230082607A70041
:100658002F082707A8002808FF3E840025088313D1
:1006680080000A30F3000030F4002108F60020086A
:10067800F5008A11A3258A11740883120313A100B7
:100688007308A0000130A5002508AE0730082F0721
:10069800A500A601A60D2608803A803C031D562B0E
:1006A80025082E02031C592B5A2B132B83120313D4
:1006B8002F082407A5002A082507A60030082607C2
:1006C800A7002D082707A8002808840083138001A5
:1006D80008008B1E702B712B862B0B1D742B752B12
:1006E800862B831203131F1D7A2B7B2B812BFB3048
:1006F800F00070089F050617832B1F081F1581013E
:100708000B11FC2B831603130C1C8B2B8C2B992B96
:10071800831203130C1C912B922B992B3F169E309E
:100728008F0040308E000C10FC2B01308316031311
:100738008C1C0039831203138C1C003900380319F0
:10074800A62BA72BAF2B50308316031392008312CE
:1007580003138C10FC2B831603130C1FB42BB52B1F
:10076800F02B831203130C1FBA2BBB2BF02B1F1D6E
:10077800BE2BBF2BC02B061738301F05F0000830E2
:100788007006031DC82BC92BD62B1E08BE00831666
:1007980003131E0883120313BD00C730F00070084E
:1007A8009F05EC2B1F083839031DDB2BDC2BEC2BAA
:1007B8001E08BC00831603131E0883120313BB0014
:1007C800C730F00070089F059F153C309700640003
:1007D800831203130C13FC2B8B1DF32BF42BFC2B14
:1007E8000B1CF72BF82BFC2B8312BF160B10FC2BC2
:1007F80072088A00710E8300FE0E7E0E09008312B5
:100808000313A8001430A6002608F30028088A114C
:10081800D3268A11831203132507A7002708A900E6
:10082800143029020318192C1A2C212CFA01290832
:1008380080388A1153268A11872C14302902031C08
:10084800262C272C432C2830290203182C2C2D2C3D
:10085800432CFA011430F3000030F4002908A600F4
:10086800A7012608F5002708F6008A11FC248A113A
:100878007308403E80388A1153268A11872C293004
:100888002902031C482C492C652C3C3029020318EA
:100898004E2C4F2C652CFA012830F3000030F40060
:1008A8002908A600A7012608F5002708F6008A11DE
:1008B800FC248A117308143E80388A1153268A1141
:1008C800872C14302902031C6A2C6B2C872C2830A7
:1008D80029020318702C712C872CFA013C30F30084
:1008E8000030F4002908A600A7012608F50027080B
:1008F800F6008A11FC248A117308543E80388A1144
:1009080053268A11872C0800F30103308A115525D4
:100918008A11103083120313A6009330A500A50B8B
:10092800932CA60B932C982CF30103308A11552590
:100938008A11633083120313A500A50BA12CF301C0
:1009480003308A1155258A11023083120313A5003A
:10095800A50BAC2C0000F30102308A1155258A1131
:10096800023083120313A500A50BB82C0000FA016E
:1009780028308A1153268A11023083120313A500E6
:10098800A50BC42C0000FA0108308A1153268A11DD
:10099800023083120313A500A50BD02C0000FA0126
:1009A80001308A1153268A11063083120313A600D8
:1009B8002F30A500A50BDE2CA60BDE2CE32CFA01AC
:1009C80006308A1153268A11023083120313A500B8
:1009D800A50BEC2C0000FA010C308A1153268A1161
:1009E800023083120313A500A50BF82C00000800A1
:1009F800F901F61F002D012D082DF509F609F50A54
:100A08000319F60AF901F90AF41F0B2D0C2D112D03
:100A1800F309F409F30A0319F40A730874040319AF
:100A2800162D172D462DF801F80A252D0130031033
:100A3800F30DF40DFF3E031D1B2D0130F700770861
:100A4800F807F41F282D292D1A2D74087602031D86
:100A58002F2D73087502031C322D332D392D730881
:100A6800F5027408031CF603F60201300310F40CB7
:100A7800F30CFF3E031D3A2D0130F802031D452DEE
:100A8800462D292D790803194A2D4B2D502DF5098E
:100A9800F609F50A0319F60A7608F4007508F30052
:100AA8000800F600831203138517730803195D2DD8
:100AB8005E2D602D0517612D05137608F4000330AF
:100AC8000310F40CFF3E031D642D74080139F50072
:100AD800F50E06087506EF39750686007608F400E7
:100AE80002300310F40CFF3E031D752D7408013904
:100AF800F500F50DF50DF50D06087506F7397506BF
:100B080086007608F4000310740C0139F500F50D21
:100B1800F50D06087506FB39750686007608013955
:100B2800F400F40D06087406FD39740686000330D7
:100B3800F400F40B9D2D8312031385130800F801AC
:100B4800F901730874040319AA2DAB2DE22DFA01DB
:100B5800FA0AB92D01300310F30DF40DFF3E031D01
:100B6800AF2D0130F7007708FA07F41FBC2DBD2D13
:100B7800AE2D01300310F80DF90DFF3E031DBE2DFB
:100B880074087602031DCA2D73087502031CCD2D47
:100B9800CE2DD52D7308F5027408031CF603F60252
:100BA800781401300310F40CF30CFF3E031DD62D0E
:100BB8000130FA02031DE12DE22DBD2D7908F40064
:100BC8007808F3000800730874040319EC2DED2D60
:100BD8001C2EF801F80AFB2D01300310F30DF40D5B
:100BE800FF3E031DF12D0130F7007708F807F41FC9
:100BF800FE2DFF2DF02D74087602031D052E7308B7
:100C08007502031C082E092E0F2E7308F5027408AE
:100C1800031CF603F60201300310F40CF30CFF3E3C
:100C2800031D102E0130F802031D1B2E1C2EFF2D54
:100C38007608F4007508F3000800FF1B2B2E8313B9
:100C48007F1883170008840A0319FF0A0800063072
:100C58008A000408840A8207003420344734453463
:100C68004934473445345234203443344F345534AE
:100C78004E345434453452340034753453342F349C
:100C880068342034203420340034433450344D3414
:100C980020340034563430342E3431340034831246
:100CA8000313A4002408A00004300310A00CFF3E86
:100CB800031D592E2008A1002108A20024080F397D
:100CC800A0002008A3007A08A0002008F30022084A
:100CD8008A1155258A11023083120313A000A00B34
:100CE800732E00007A0883120313A0002008F30073
:100CF80023088A1155258A110800003074020A3029
:100D0800031973020318892E8A2E8C2E0130AE2EF9
:100D1800003074026430031973020318942E952E60
:100D2800972E0230AE2E03307402E8300319730296
:100D380003189F2EA02EA22E0330AE2E2730740249
:100D48001030031973020318AA2EAB2EAD2E0430EF
:100D5800AE2E05300800C42EFA01FA0A2608FF0054
:100D6800250884008A1121268A118A1153268A119E
:100D7800013083120313A5070318A60A0030A6073B
:100D8800831203132608FF00250884008A112126F0
:100D98008A11003A031DD12ED22EB02E0800F6007B
:100DA800F501761CD82ED92EDD2E7308F4007408B0
:100DB800F5070310F30D0310F60C7608031DE52E56
:100DC800E62ED52E75080800FA0101308A1153263F
:100DD8008A11063083120313A6002F30A500A50B35
:0A0DE800F32EA60BF32EF82E0800E0
:04400E00543FFF3FDD
:00000001FF
